{
  "_format": "hh-sol-artifact-1",
  "contractName": "MyEpicGame",
  "sourceName": "contracts/MyEpicGame.sol",
  "abi": [
    {
      "inputs": [
        {
          "internalType": "string[]",
          "name": "characterNames",
          "type": "string[]"
        },
        {
          "internalType": "string[]",
          "name": "characterImageURIs",
          "type": "string[]"
        },
        {
          "internalType": "uint256[]",
          "name": "characterHp",
          "type": "uint256[]"
        },
        {
          "internalType": "uint256[]",
          "name": "characterAttackDmg",
          "type": "uint256[]"
        },
        {
          "internalType": "string",
          "name": "bossName",
          "type": "string"
        },
        {
          "internalType": "string",
          "name": "bossImageURI",
          "type": "string"
        },
        {
          "internalType": "uint256",
          "name": "bossHp",
          "type": "uint256"
        },
        {
          "internalType": "uint256",
          "name": "bossAttackDamage",
          "type": "uint256"
        }
      ],
      "stateMutability": "nonpayable",
      "type": "constructor"
    },
    {
      "anonymous": false,
      "inputs": [
        {
          "indexed": true,
          "internalType": "address",
          "name": "owner",
          "type": "address"
        },
        {
          "indexed": true,
          "internalType": "address",
          "name": "approved",
          "type": "address"
        },
        {
          "indexed": true,
          "internalType": "uint256",
          "name": "tokenId",
          "type": "uint256"
        }
      ],
      "name": "Approval",
      "type": "event"
    },
    {
      "anonymous": false,
      "inputs": [
        {
          "indexed": true,
          "internalType": "address",
          "name": "owner",
          "type": "address"
        },
        {
          "indexed": true,
          "internalType": "address",
          "name": "operator",
          "type": "address"
        },
        {
          "indexed": false,
          "internalType": "bool",
          "name": "approved",
          "type": "bool"
        }
      ],
      "name": "ApprovalForAll",
      "type": "event"
    },
    {
      "anonymous": false,
      "inputs": [
        {
          "indexed": false,
          "internalType": "uint256",
          "name": "newBossHp",
          "type": "uint256"
        },
        {
          "indexed": false,
          "internalType": "uint256",
          "name": "newPlayerHp",
          "type": "uint256"
        }
      ],
      "name": "AttackComplete",
      "type": "event"
    },
    {
      "anonymous": false,
      "inputs": [
        {
          "indexed": false,
          "internalType": "address",
          "name": "sender",
          "type": "address"
        },
        {
          "indexed": false,
          "internalType": "uint256",
          "name": "tokenId",
          "type": "uint256"
        },
        {
          "indexed": false,
          "internalType": "uint256",
          "name": "characterIndex",
          "type": "uint256"
        }
      ],
      "name": "CharacterNFTMinted",
      "type": "event"
    },
    {
      "anonymous": false,
      "inputs": [
        {
          "indexed": true,
          "internalType": "address",
          "name": "from",
          "type": "address"
        },
        {
          "indexed": true,
          "internalType": "address",
          "name": "to",
          "type": "address"
        },
        {
          "indexed": true,
          "internalType": "uint256",
          "name": "tokenId",
          "type": "uint256"
        }
      ],
      "name": "Transfer",
      "type": "event"
    },
    {
      "inputs": [
        {
          "internalType": "address",
          "name": "to",
          "type": "address"
        },
        {
          "internalType": "uint256",
          "name": "tokenId",
          "type": "uint256"
        }
      ],
      "name": "approve",
      "outputs": [],
      "stateMutability": "nonpayable",
      "type": "function"
    },
    {
      "inputs": [],
      "name": "attackBoss",
      "outputs": [],
      "stateMutability": "nonpayable",
      "type": "function"
    },
    {
      "inputs": [
        {
          "internalType": "address",
          "name": "owner",
          "type": "address"
        }
      ],
      "name": "balanceOf",
      "outputs": [
        {
          "internalType": "uint256",
          "name": "",
          "type": "uint256"
        }
      ],
      "stateMutability": "view",
      "type": "function"
    },
    {
      "inputs": [],
      "name": "bigBoss",
      "outputs": [
        {
          "internalType": "string",
          "name": "name",
          "type": "string"
        },
        {
          "internalType": "string",
          "name": "imageURI",
          "type": "string"
        },
        {
          "internalType": "uint256",
          "name": "hp",
          "type": "uint256"
        },
        {
          "internalType": "uint256",
          "name": "maxHp",
          "type": "uint256"
        },
        {
          "internalType": "uint256",
          "name": "attackDamage",
          "type": "uint256"
        }
      ],
      "stateMutability": "view",
      "type": "function"
    },
    {
      "inputs": [],
      "name": "checkIfUserHasNFT",
      "outputs": [
        {
          "components": [
            {
              "internalType": "uint256",
              "name": "characterIndex",
              "type": "uint256"
            },
            {
              "internalType": "string",
              "name": "name",
              "type": "string"
            },
            {
              "internalType": "string",
              "name": "imageURI",
              "type": "string"
            },
            {
              "internalType": "uint256",
              "name": "hp",
              "type": "uint256"
            },
            {
              "internalType": "uint256",
              "name": "maxHp",
              "type": "uint256"
            },
            {
              "internalType": "uint256",
              "name": "attackDamage",
              "type": "uint256"
            }
          ],
          "internalType": "struct MyEpicGame.CharacterAttributes",
          "name": "",
          "type": "tuple"
        }
      ],
      "stateMutability": "view",
      "type": "function"
    },
    {
      "inputs": [],
      "name": "getAllDefaultCharacters",
      "outputs": [
        {
          "components": [
            {
              "internalType": "uint256",
              "name": "characterIndex",
              "type": "uint256"
            },
            {
              "internalType": "string",
              "name": "name",
              "type": "string"
            },
            {
              "internalType": "string",
              "name": "imageURI",
              "type": "string"
            },
            {
              "internalType": "uint256",
              "name": "hp",
              "type": "uint256"
            },
            {
              "internalType": "uint256",
              "name": "maxHp",
              "type": "uint256"
            },
            {
              "internalType": "uint256",
              "name": "attackDamage",
              "type": "uint256"
            }
          ],
          "internalType": "struct MyEpicGame.CharacterAttributes[]",
          "name": "",
          "type": "tuple[]"
        }
      ],
      "stateMutability": "view",
      "type": "function"
    },
    {
      "inputs": [],
      "name": "getAllPlayers",
      "outputs": [
        {
          "components": [
            {
              "internalType": "uint256",
              "name": "characterIndex",
              "type": "uint256"
            },
            {
              "internalType": "string",
              "name": "name",
              "type": "string"
            },
            {
              "internalType": "string",
              "name": "imageURI",
              "type": "string"
            },
            {
              "internalType": "uint256",
              "name": "hp",
              "type": "uint256"
            },
            {
              "internalType": "uint256",
              "name": "maxHp",
              "type": "uint256"
            },
            {
              "internalType": "uint256",
              "name": "attackDamage",
              "type": "uint256"
            }
          ],
          "internalType": "struct MyEpicGame.CharacterAttributes[]",
          "name": "",
          "type": "tuple[]"
        }
      ],
      "stateMutability": "view",
      "type": "function"
    },
    {
      "inputs": [
        {
          "internalType": "uint256",
          "name": "tokenId",
          "type": "uint256"
        }
      ],
      "name": "getApproved",
      "outputs": [
        {
          "internalType": "address",
          "name": "",
          "type": "address"
        }
      ],
      "stateMutability": "view",
      "type": "function"
    },
    {
      "inputs": [],
      "name": "getBigBoss",
      "outputs": [
        {
          "components": [
            {
              "internalType": "string",
              "name": "name",
              "type": "string"
            },
            {
              "internalType": "string",
              "name": "imageURI",
              "type": "string"
            },
            {
              "internalType": "uint256",
              "name": "hp",
              "type": "uint256"
            },
            {
              "internalType": "uint256",
              "name": "maxHp",
              "type": "uint256"
            },
            {
              "internalType": "uint256",
              "name": "attackDamage",
              "type": "uint256"
            }
          ],
          "internalType": "struct MyEpicGame.BigBoss",
          "name": "",
          "type": "tuple"
        }
      ],
      "stateMutability": "view",
      "type": "function"
    },
    {
      "inputs": [
        {
          "internalType": "address",
          "name": "owner",
          "type": "address"
        },
        {
          "internalType": "address",
          "name": "operator",
          "type": "address"
        }
      ],
      "name": "isApprovedForAll",
      "outputs": [
        {
          "internalType": "bool",
          "name": "",
          "type": "bool"
        }
      ],
      "stateMutability": "view",
      "type": "function"
    },
    {
      "inputs": [
        {
          "internalType": "uint256",
          "name": "_characterIndex",
          "type": "uint256"
        }
      ],
      "name": "mintCharacterNFT",
      "outputs": [],
      "stateMutability": "nonpayable",
      "type": "function"
    },
    {
      "inputs": [],
      "name": "name",
      "outputs": [
        {
          "internalType": "string",
          "name": "",
          "type": "string"
        }
      ],
      "stateMutability": "view",
      "type": "function"
    },
    {
      "inputs": [
        {
          "internalType": "uint256",
          "name": "",
          "type": "uint256"
        }
      ],
      "name": "nftHolderAttributes",
      "outputs": [
        {
          "internalType": "uint256",
          "name": "characterIndex",
          "type": "uint256"
        },
        {
          "internalType": "string",
          "name": "name",
          "type": "string"
        },
        {
          "internalType": "string",
          "name": "imageURI",
          "type": "string"
        },
        {
          "internalType": "uint256",
          "name": "hp",
          "type": "uint256"
        },
        {
          "internalType": "uint256",
          "name": "maxHp",
          "type": "uint256"
        },
        {
          "internalType": "uint256",
          "name": "attackDamage",
          "type": "uint256"
        }
      ],
      "stateMutability": "view",
      "type": "function"
    },
    {
      "inputs": [
        {
          "internalType": "address",
          "name": "",
          "type": "address"
        }
      ],
      "name": "nftHolders",
      "outputs": [
        {
          "internalType": "uint256",
          "name": "",
          "type": "uint256"
        }
      ],
      "stateMutability": "view",
      "type": "function"
    },
    {
      "inputs": [
        {
          "internalType": "uint256",
          "name": "tokenId",
          "type": "uint256"
        }
      ],
      "name": "ownerOf",
      "outputs": [
        {
          "internalType": "address",
          "name": "",
          "type": "address"
        }
      ],
      "stateMutability": "view",
      "type": "function"
    },
    {
      "inputs": [
        {
          "internalType": "address",
          "name": "from",
          "type": "address"
        },
        {
          "internalType": "address",
          "name": "to",
          "type": "address"
        },
        {
          "internalType": "uint256",
          "name": "tokenId",
          "type": "uint256"
        }
      ],
      "name": "safeTransferFrom",
      "outputs": [],
      "stateMutability": "nonpayable",
      "type": "function"
    },
    {
      "inputs": [
        {
          "internalType": "address",
          "name": "from",
          "type": "address"
        },
        {
          "internalType": "address",
          "name": "to",
          "type": "address"
        },
        {
          "internalType": "uint256",
          "name": "tokenId",
          "type": "uint256"
        },
        {
          "internalType": "bytes",
          "name": "_data",
          "type": "bytes"
        }
      ],
      "name": "safeTransferFrom",
      "outputs": [],
      "stateMutability": "nonpayable",
      "type": "function"
    },
    {
      "inputs": [
        {
          "internalType": "address",
          "name": "operator",
          "type": "address"
        },
        {
          "internalType": "bool",
          "name": "approved",
          "type": "bool"
        }
      ],
      "name": "setApprovalForAll",
      "outputs": [],
      "stateMutability": "nonpayable",
      "type": "function"
    },
    {
      "inputs": [
        {
          "internalType": "bytes4",
          "name": "interfaceId",
          "type": "bytes4"
        }
      ],
      "name": "supportsInterface",
      "outputs": [
        {
          "internalType": "bool",
          "name": "",
          "type": "bool"
        }
      ],
      "stateMutability": "view",
      "type": "function"
    },
    {
      "inputs": [],
      "name": "symbol",
      "outputs": [
        {
          "internalType": "string",
          "name": "",
          "type": "string"
        }
      ],
      "stateMutability": "view",
      "type": "function"
    },
    {
      "inputs": [
        {
          "internalType": "uint256",
          "name": "_tokenId",
          "type": "uint256"
        }
      ],
      "name": "tokenURI",
      "outputs": [
        {
          "internalType": "string",
          "name": "",
          "type": "string"
        }
      ],
      "stateMutability": "view",
      "type": "function"
    },
    {
      "inputs": [
        {
          "internalType": "address",
          "name": "from",
          "type": "address"
        },
        {
          "internalType": "address",
          "name": "to",
          "type": "address"
        },
        {
          "internalType": "uint256",
          "name": "tokenId",
          "type": "uint256"
        }
      ],
      "name": "transferFrom",
      "outputs": [],
      "stateMutability": "nonpayable",
      "type": "function"
    }
  ],
  "bytecode": "0x60806040523480156200001157600080fd5b50604051620059ae380380620059ae833981810160405281019062000037919062000a5a565b6040518060400160405280600681526020017f4865726f657300000000000000000000000000000000000000000000000000008152506040518060400160405280600481526020017f4845524f000000000000000000000000000000000000000000000000000000008152508160009080519060200190620000bb929190620007ed565b508060019080519060200190620000d4929190620007ed565b50505060005b8851811015620004f35760076040518060c001604052808381526020018b848151811062000131577f4e487b7100000000000000000000000000000000000000000000000000000000600052603260045260246000fd5b602002602001015181526020018a848151811062000178577f4e487b7100000000000000000000000000000000000000000000000000000000600052603260045260246000fd5b60200260200101518152602001898481518110620001bf577f4e487b7100000000000000000000000000000000000000000000000000000000600052603260045260246000fd5b6020026020010151815260200189848151811062000206577f4e487b7100000000000000000000000000000000000000000000000000000000600052603260045260246000fd5b602002602001015181526020018884815181106200024d577f4e487b7100000000000000000000000000000000000000000000000000000000600052603260045260246000fd5b60200260200101518152509080600181540180825580915050600190039060005260206000209060060201600090919091909150600082015181600001556020820151816001019080519060200190620002a9929190620007ed565b506040820151816002019080519060200190620002c8929190620007ed565b50606082015181600301556080820151816004015560a08201518160050155505060006007828154811062000326577f4e487b7100000000000000000000000000000000000000000000000000000000600052603260045260246000fd5b90600052602060002090600602016040518060c0016040529081600082015481526020016001820180546200035b9062000de5565b80601f0160208091040260200160405190810160405280929190818152602001828054620003899062000de5565b8015620003da5780601f10620003ae57610100808354040283529160200191620003da565b820191906000526020600020905b815481529060010190602001808311620003bc57829003601f168201915b50505050508152602001600282018054620003f59062000de5565b80601f0160208091040260200160405190810160405280929190818152602001828054620004239062000de5565b8015620004745780601f10620004485761010080835404028352916020019162000474565b820191906000526020600020905b8154815290600101906020018083116200045657829003601f168201915b5050505050815260200160038201548152602001600482015481526020016005820154815250509050620004db6040518060600160405280602581526020016200595f602591398260200151836060015184604001516200070260201b62001e641760201c565b50600181620004eb919062000d48565b9050620000da565b506040518060a0016040528085815260200184815260200183815260200183815260200182815250600a60008201518160000190805190602001906200053b929190620007ed565b5060208201518160010190805190602001906200055a929190620007ed565b50604082015181600201556060820151816003015560808201518160040155905050620006dd6040518060600160405280602a815260200162005984602a9139600a6000018054620005ac9062000de5565b80601f0160208091040260200160405190810160405280929190818152602001828054620005da9062000de5565b80156200062b5780601f10620005ff576101008083540402835291602001916200062b565b820191906000526020600020905b8154815290600101906020018083116200060d57829003601f168201915b5050505050600a60020154600a6001018054620006489062000de5565b80601f0160208091040260200160405190810160405280929190818152602001828054620006769062000de5565b8015620006c75780601f106200069b57610100808354040283529160200191620006c7565b820191906000526020600020905b815481529060010190602001808311620006a957829003601f168201915b50505050506200070260201b62001e641760201c565b620006f46006620007ae60201b62001f061760201c565b505050505050505062000ed3565b620007a8848484846040516024016200071f949392919062000c05565b6040516020818303038152906040527f8d142cdd000000000000000000000000000000000000000000000000000000007bffffffffffffffffffffffffffffffffffffffffffffffffffffffff19166020820180517bffffffffffffffffffffffffffffffffffffffffffffffffffffffff8381831617835250505050620007c460201b60201c565b50505050565b6001816000016000828254019250508190555050565b60008151905060006a636f6e736f6c652e6c6f679050602083016000808483855afa5050505050565b828054620007fb9062000de5565b90600052602060002090601f0160209004810192826200081f57600085556200086b565b82601f106200083a57805160ff19168380011785556200086b565b828001600101855582156200086b579182015b828111156200086a5782518255916020019190600101906200084d565b5b5090506200087a91906200087e565b5090565b5b80821115620008995760008160009055506001016200087f565b5090565b6000620008b4620008ae8462000c9b565b62000c67565b9050808382526020820190508260005b85811015620008f85781518501620008dd888262000a16565b845260208401935060208301925050600181019050620008c4565b5050509392505050565b600062000919620009138462000cca565b62000c67565b905080838252602082019050828560208602820111156200093957600080fd5b60005b858110156200096d578162000952888262000a43565b8452602084019350602083019250506001810190506200093c565b5050509392505050565b60006200098e620009888462000cf9565b62000c67565b905082815260208101848484011115620009a757600080fd5b620009b484828562000daf565b509392505050565b600082601f830112620009ce57600080fd5b8151620009e08482602086016200089d565b91505092915050565b600082601f830112620009fb57600080fd5b815162000a0d84826020860162000902565b91505092915050565b600082601f83011262000a2857600080fd5b815162000a3a84826020860162000977565b91505092915050565b60008151905062000a548162000eb9565b92915050565b600080600080600080600080610100898b03121562000a7857600080fd5b600089015167ffffffffffffffff81111562000a9357600080fd5b62000aa18b828c01620009bc565b985050602089015167ffffffffffffffff81111562000abf57600080fd5b62000acd8b828c01620009bc565b975050604089015167ffffffffffffffff81111562000aeb57600080fd5b62000af98b828c01620009e9565b965050606089015167ffffffffffffffff81111562000b1757600080fd5b62000b258b828c01620009e9565b955050608089015167ffffffffffffffff81111562000b4357600080fd5b62000b518b828c0162000a16565b94505060a089015167ffffffffffffffff81111562000b6f57600080fd5b62000b7d8b828c0162000a16565b93505060c062000b908b828c0162000a43565b92505060e062000ba38b828c0162000a43565b9150509295985092959890939650565b600062000bc08262000d2c565b62000bcc818562000d37565b935062000bde81856020860162000daf565b62000be98162000ea8565b840191505092915050565b62000bff8162000da5565b82525050565b6000608082019050818103600083015262000c21818762000bb3565b9050818103602083015262000c37818662000bb3565b905062000c48604083018562000bf4565b818103606083015262000c5c818462000bb3565b905095945050505050565b6000604051905081810181811067ffffffffffffffff8211171562000c915762000c9062000e79565b5b8060405250919050565b600067ffffffffffffffff82111562000cb95762000cb862000e79565b5b602082029050602081019050919050565b600067ffffffffffffffff82111562000ce85762000ce762000e79565b5b602082029050602081019050919050565b600067ffffffffffffffff82111562000d175762000d1662000e79565b5b601f19601f8301169050602081019050919050565b600081519050919050565b600082825260208201905092915050565b600062000d558262000da5565b915062000d628362000da5565b9250827fffffffffffffffffffffffffffffffffffffffffffffffffffffffffffffffff0382111562000d9a5762000d9962000e1b565b5b828201905092915050565b6000819050919050565b60005b8381101562000dcf57808201518184015260208101905062000db2565b8381111562000ddf576000848401525b50505050565b6000600282049050600182168062000dfe57607f821691505b6020821081141562000e155762000e1462000e4a565b5b50919050565b7f4e487b7100000000000000000000000000000000000000000000000000000000600052601160045260246000fd5b7f4e487b7100000000000000000000000000000000000000000000000000000000600052602260045260246000fd5b7f4e487b7100000000000000000000000000000000000000000000000000000000600052604160045260246000fd5b6000601f19601f8301169050919050565b62000ec48162000da5565b811462000ed057600080fd5b50565b614a7c8062000ee36000396000f3fe608060405234801561001057600080fd5b50600436106101425760003560e01c806398da4c95116100b8578063c87b56dd1161007c578063c87b56dd14610392578063c8cf27f4146103c2578063d4f24c5b146103e0578063e985e9c5146103ea578063efa1c4821461041a578063f8b81ef71461043857610142565b806398da4c95146102e5578063a22cb4651461031a578063a9c3267914610336578063b88d4fde14610358578063b953084e1461037457610142565b806323b872dd1161010a57806323b872dd146101ff57806342842e0e1461021b5780636352211e1461023757806370a08231146102675780637df124a11461029757806395d89b41146102c757610142565b806301ffc9a7146101475780630665f9611461017757806306fdde0314610195578063081812fc146101b3578063095ea7b3146101e3575b600080fd5b610161600480360381019061015c91906132ab565b610454565b60405161016e9190614031565b60405180910390f35b61017f610536565b60405161018c91906143ca565b60405180910390f35b61019d610692565b6040516101aa919061404c565b60405180910390f35b6101cd60048036038101906101c891906132fd565b610724565b6040516101da9190613f71565b60405180910390f35b6101fd60048036038101906101f8919061326f565b6107a9565b005b61021960048036038101906102149190613169565b6108c1565b005b61023560048036038101906102309190613169565b610921565b005b610251600480360381019061024c91906132fd565b610941565b60405161025e9190613f71565b60405180910390f35b610281600480360381019061027c9190613104565b6109f3565b60405161028e919061440e565b60405180910390f35b6102b160048036038101906102ac9190613104565b610aab565b6040516102be919061440e565b60405180910390f35b6102cf610ac3565b6040516102dc919061404c565b60405180910390f35b6102ff60048036038101906102fa91906132fd565b610b55565b60405161031196959493929190614429565b60405180910390f35b610334600480360381019061032f9190613233565b610ca1565b005b61033e610cb7565b60405161034f95949392919061411b565b60405180910390f35b610372600480360381019061036d91906131b8565b610deb565b005b61037c610e4d565b604051610389919061400f565b60405180910390f35b6103ac60048036038101906103a791906132fd565b610ff8565b6040516103b9919061404c565b60405180910390f35b6103ca611213565b6040516103d791906143ec565b60405180910390f35b6103e86113eb565b005b61040460048036038101906103ff919061312d565b611776565b6040516104119190614031565b60405180910390f35b61042261180a565b60405161042f919061400f565b60405180910390f35b610452600480360381019061044d91906132fd565b611a70565b005b60007f80ac58cd000000000000000000000000000000000000000000000000000000007bffffffffffffffffffffffffffffffffffffffffffffffffffffffff1916827bffffffffffffffffffffffffffffffffffffffffffffffffffffffff1916148061051f57507f5b5e139f000000000000000000000000000000000000000000000000000000007bffffffffffffffffffffffffffffffffffffffffffffffffffffffff1916827bffffffffffffffffffffffffffffffffffffffffffffffffffffffff1916145b8061052f575061052e82611f1c565b5b9050919050565b61053e612f2b565b600a6040518060a001604052908160008201805461055b9061477a565b80601f01602080910402602001604051908101604052809291908181526020018280546105879061477a565b80156105d45780601f106105a9576101008083540402835291602001916105d4565b820191906000526020600020905b8154815290600101906020018083116105b757829003601f168201915b505050505081526020016001820180546105ed9061477a565b80601f01602080910402602001604051908101604052809291908181526020018280546106199061477a565b80156106665780601f1061063b57610100808354040283529160200191610666565b820191906000526020600020905b81548152906001019060200180831161064957829003601f168201915b505050505081526020016002820154815260200160038201548152602001600482015481525050905090565b6060600080546106a19061477a565b80601f01602080910402602001604051908101604052809291908181526020018280546106cd9061477a565b801561071a5780601f106106ef5761010080835404028352916020019161071a565b820191906000526020600020905b8154815290600101906020018083116106fd57829003601f168201915b5050505050905090565b600061072f82611f86565b61076e576040517f08c379a00000000000000000000000000000000000000000000000000000000081526004016107659061434a565b60405180910390fd5b6004600083815260200190815260200160002060009054906101000a900473ffffffffffffffffffffffffffffffffffffffff169050919050565b60006107b482610941565b90508073ffffffffffffffffffffffffffffffffffffffff168373ffffffffffffffffffffffffffffffffffffffff161415610825576040517f08c379a000000000000000000000000000000000000000000000000000000000815260040161081c9061438a565b60405180910390fd5b8073ffffffffffffffffffffffffffffffffffffffff16610844611ff2565b73ffffffffffffffffffffffffffffffffffffffff16148061087357506108728161086d611ff2565b611776565b5b6108b2576040517f08c379a00000000000000000000000000000000000000000000000000000000081526004016108a9906142aa565b60405180910390fd5b6108bc8383611ffa565b505050565b6108d26108cc611ff2565b826120b3565b610911576040517f08c379a0000000000000000000000000000000000000000000000000000000008152600401610908906143aa565b60405180910390fd5b61091c838383612191565b505050565b61093c83838360405180602001604052806000815250610deb565b505050565b6000806002600084815260200190815260200160002060009054906101000a900473ffffffffffffffffffffffffffffffffffffffff169050600073ffffffffffffffffffffffffffffffffffffffff168173ffffffffffffffffffffffffffffffffffffffff1614156109ea576040517f08c379a00000000000000000000000000000000000000000000000000000000081526004016109e1906142ea565b60405180910390fd5b80915050919050565b60008073ffffffffffffffffffffffffffffffffffffffff168273ffffffffffffffffffffffffffffffffffffffff161415610a64576040517f08c379a0000000000000000000000000000000000000000000000000000000008152600401610a5b906142ca565b60405180910390fd5b600360008373ffffffffffffffffffffffffffffffffffffffff1673ffffffffffffffffffffffffffffffffffffffff168152602001908152602001600020549050919050565b60096020528060005260406000206000915090505481565b606060018054610ad29061477a565b80601f0160208091040260200160405190810160405280929190818152602001828054610afe9061477a565b8015610b4b5780601f10610b2057610100808354040283529160200191610b4b565b820191906000526020600020905b815481529060010190602001808311610b2e57829003601f168201915b5050505050905090565b6008602052806000526040600020600091509050806000015490806001018054610b7e9061477a565b80601f0160208091040260200160405190810160405280929190818152602001828054610baa9061477a565b8015610bf75780601f10610bcc57610100808354040283529160200191610bf7565b820191906000526020600020905b815481529060010190602001808311610bda57829003601f168201915b505050505090806002018054610c0c9061477a565b80601f0160208091040260200160405190810160405280929190818152602001828054610c389061477a565b8015610c855780601f10610c5a57610100808354040283529160200191610c85565b820191906000526020600020905b815481529060010190602001808311610c6857829003601f168201915b5050505050908060030154908060040154908060050154905086565b610cb3610cac611ff2565b83836123ed565b5050565b600a806000018054610cc89061477a565b80601f0160208091040260200160405190810160405280929190818152602001828054610cf49061477a565b8015610d415780601f10610d1657610100808354040283529160200191610d41565b820191906000526020600020905b815481529060010190602001808311610d2457829003601f168201915b505050505090806001018054610d569061477a565b80601f0160208091040260200160405190810160405280929190818152602001828054610d829061477a565b8015610dcf5780601f10610da457610100808354040283529160200191610dcf565b820191906000526020600020905b815481529060010190602001808311610db257829003601f168201915b5050505050908060020154908060030154908060040154905085565b610dfc610df6611ff2565b836120b3565b610e3b576040517f08c379a0000000000000000000000000000000000000000000000000000000008152600401610e32906143aa565b60405180910390fd5b610e478484848461255a565b50505050565b60606007805480602002602001604051908101604052809291908181526020016000905b82821015610fef57838290600052602060002090600602016040518060c001604052908160008201548152602001600182018054610eae9061477a565b80601f0160208091040260200160405190810160405280929190818152602001828054610eda9061477a565b8015610f275780601f10610efc57610100808354040283529160200191610f27565b820191906000526020600020905b815481529060010190602001808311610f0a57829003601f168201915b50505050508152602001600282018054610f409061477a565b80601f0160208091040260200160405190810160405280929190818152602001828054610f6c9061477a565b8015610fb95780601f10610f8e57610100808354040283529160200191610fb9565b820191906000526020600020905b815481529060010190602001808311610f9c57829003601f168201915b50505050508152602001600382015481526020016004820154815260200160058201548152505081526020019060010190610e71565b50505050905090565b60606000600860008481526020019081526020016000206040518060c0016040529081600082015481526020016001820180546110349061477a565b80601f01602080910402602001604051908101604052809291908181526020018280546110609061477a565b80156110ad5780601f10611082576101008083540402835291602001916110ad565b820191906000526020600020905b81548152906001019060200180831161109057829003601f168201915b505050505081526020016002820180546110c69061477a565b80601f01602080910402602001604051908101604052809291908181526020018280546110f29061477a565b801561113f5780601f106111145761010080835404028352916020019161113f565b820191906000526020600020905b81548152906001019060200180831161112257829003601f168201915b5050505050815260200160038201548152602001600482015481526020016005820154815250509050600061117782606001516125b6565b9050600061118883608001516125b6565b905060006111998460a001516125b6565b905060006111df85602001516111ae896125b6565b87604001518787876040516020016111cb96959493929190613eaa565b604051602081830303815290604052612763565b90506000816040516020016111f49190613f4f565b6040516020818303038152906040529050809650505050505050919050565b61121b612f5a565b6000600960003373ffffffffffffffffffffffffffffffffffffffff1673ffffffffffffffffffffffffffffffffffffffff16815260200190815260200160002054905060008111156113da57600860008281526020019081526020016000206040518060c0016040529081600082015481526020016001820180546112a09061477a565b80601f01602080910402602001604051908101604052809291908181526020018280546112cc9061477a565b80156113195780601f106112ee57610100808354040283529160200191611319565b820191906000526020600020905b8154815290600101906020018083116112fc57829003601f168201915b505050505081526020016002820180546113329061477a565b80601f016020809104026020016040519081016040528092919081815260200182805461135e9061477a565b80156113ab5780601f10611380576101008083540402835291602001916113ab565b820191906000526020600020905b81548152906001019060200180831161138e57829003601f168201915b5050505050815260200160038201548152602001600482015481526020016005820154815250509150506113e8565b6113e2612f5a565b80925050505b90565b6000600960003373ffffffffffffffffffffffffffffffffffffffff1673ffffffffffffffffffffffffffffffffffffffff16815260200190815260200160002054905060006008600083815260200190815260200160002090506114fe6040518060600160405280603c8152602001614a0b603c91398260010180546114719061477a565b80601f016020809104026020016040519081016040528092919081815260200182805461149d9061477a565b80156114ea5780601f106114bf576101008083540402835291602001916114ea565b820191906000526020600020905b8154815290600101906020018083116114cd57829003601f168201915b505050505083600301548460050154612921565b6115d66040518060400160405280601b81526020017f426f73732025732068617320257320485020616e642025732041440000000000815250600a60000180546115479061477a565b80601f01602080910402602001604051908101604052809291908181526020018280546115739061477a565b80156115c05780601f10611595576101008083540402835291602001916115c0565b820191906000526020600020905b8154815290600101906020018083116115a357829003601f168201915b5050505050600a60020154600a60040154612921565b600081600301541161161d576040517f08c379a00000000000000000000000000000000000000000000000000000000081526004016116149061430a565b60405180910390fd5b6000600a6002015411611665576040517f08c379a000000000000000000000000000000000000000000000000000000000815260040161165c9061420a565b60405180910390fd5b8060050154600a600201541015611686576000600a600201819055506116a5565b8060050154600a6002015461169b9190614690565b600a600201819055505b600a60040154816003015410156116c557600081600301819055506116e3565b600a6004015481600301546116da9190614690565b81600301819055505b7f838ab28464562786a6c4ab2311964b82fa60bd9b14aa7e856af1f3f18d41a414600a60020154826003015460405161171d929190614498565b60405180910390a161174c60405180606001604052806025815260200161495060259139600a600201546129c3565b6117726040518060600160405280602881526020016149b56028913982600301546129c3565b5050565b6000600560008473ffffffffffffffffffffffffffffffffffffffff1673ffffffffffffffffffffffffffffffffffffffff16815260200190815260200160002060008373ffffffffffffffffffffffffffffffffffffffff1673ffffffffffffffffffffffffffffffffffffffff16815260200190815260200160002060009054906101000a900460ff16905092915050565b606060006118186006612a5f565b67ffffffffffffffff811115611857577f4e487b7100000000000000000000000000000000000000000000000000000000600052604160045260246000fd5b60405190808252806020026020018201604052801561189057816020015b61187d612f5a565b8152602001906001900390816118755790505b50905060005b6118a06006612a5f565b811015611a6857600860008281526020019081526020016000206040518060c0016040529081600082015481526020016001820180546118df9061477a565b80601f016020809104026020016040519081016040528092919081815260200182805461190b9061477a565b80156119585780601f1061192d57610100808354040283529160200191611958565b820191906000526020600020905b81548152906001019060200180831161193b57829003601f168201915b505050505081526020016002820180546119719061477a565b80601f016020809104026020016040519081016040528092919081815260200182805461199d9061477a565b80156119ea5780601f106119bf576101008083540402835291602001916119ea565b820191906000526020600020905b8154815290600101906020018083116119cd57829003601f168201915b505050505081526020016003820154815260200160048201548152602001600582015481525050828281518110611a4a577f4e487b7100000000000000000000000000000000000000000000000000000000600052603260045260246000fd5b60200260200101819052508080611a60906147ac565b915050611896565b508091505090565b6000611a7c6006612a5f565b9050611a883382612a6d565b6040518060c0016040528083815260200160078481548110611ad3577f4e487b7100000000000000000000000000000000000000000000000000000000600052603260045260246000fd5b90600052602060002090600602016001018054611aef9061477a565b80601f0160208091040260200160405190810160405280929190818152602001828054611b1b9061477a565b8015611b685780601f10611b3d57610100808354040283529160200191611b68565b820191906000526020600020905b815481529060010190602001808311611b4b57829003601f168201915b5050505050815260200160078481548110611bac577f4e487b7100000000000000000000000000000000000000000000000000000000600052603260045260246000fd5b90600052602060002090600602016002018054611bc89061477a565b80601f0160208091040260200160405190810160405280929190818152602001828054611bf49061477a565b8015611c415780601f10611c1657610100808354040283529160200191611c41565b820191906000526020600020905b815481529060010190602001808311611c2457829003601f168201915b5050505050815260200160078481548110611c85577f4e487b7100000000000000000000000000000000000000000000000000000000600052603260045260246000fd5b906000526020600020906006020160030154815260200160078481548110611cd6577f4e487b7100000000000000000000000000000000000000000000000000000000600052603260045260246000fd5b906000526020600020906006020160040154815260200160078481548110611d27577f4e487b7100000000000000000000000000000000000000000000000000000000600052603260045260246000fd5b90600052602060002090600602016005015481525060086000838152602001908152602001600020600082015181600001556020820151816001019080519060200190611d75929190612f90565b506040820151816002019080519060200190611d92929190612f90565b50606082015181600301556080820151816004015560a08201518160050155905050611dd76040518060600160405280602e81526020016149dd602e91398284612a8b565b80600960003373ffffffffffffffffffffffffffffffffffffffff1673ffffffffffffffffffffffffffffffffffffffff16815260200190815260200160002081905550611e256006611f06565b7f4bc303fd457a97b4691b9af582ce71868a3d258638c8d4f8c60988a0f0bfb8cd338284604051611e5893929190613fd8565b60405180910390a15050565b611f0084848484604051602401611e7e949392919061406e565b6040516020818303038152906040527f8d142cdd000000000000000000000000000000000000000000000000000000007bffffffffffffffffffffffffffffffffffffffffffffffffffffffff19166020820180517bffffffffffffffffffffffffffffffffffffffffffffffffffffffff8381831617835250505050612b2a565b50505050565b6001816000016000828254019250508190555050565b60007f01ffc9a7000000000000000000000000000000000000000000000000000000007bffffffffffffffffffffffffffffffffffffffffffffffffffffffff1916827bffffffffffffffffffffffffffffffffffffffffffffffffffffffff1916149050919050565b60008073ffffffffffffffffffffffffffffffffffffffff166002600084815260200190815260200160002060009054906101000a900473ffffffffffffffffffffffffffffffffffffffff1673ffffffffffffffffffffffffffffffffffffffff1614159050919050565b600033905090565b816004600083815260200190815260200160002060006101000a81548173ffffffffffffffffffffffffffffffffffffffff021916908373ffffffffffffffffffffffffffffffffffffffff160217905550808273ffffffffffffffffffffffffffffffffffffffff1661206d83610941565b73ffffffffffffffffffffffffffffffffffffffff167f8c5be1e5ebec7d5bd14f71427d1e84f3dd0314c0f7b2291e5b200ac8c7c3b92560405160405180910390a45050565b60006120be82611f86565b6120fd576040517f08c379a00000000000000000000000000000000000000000000000000000000081526004016120f49061428a565b60405180910390fd5b600061210883610941565b90508073ffffffffffffffffffffffffffffffffffffffff168473ffffffffffffffffffffffffffffffffffffffff16148061217757508373ffffffffffffffffffffffffffffffffffffffff1661215f84610724565b73ffffffffffffffffffffffffffffffffffffffff16145b8061218857506121878185611776565b5b91505092915050565b8273ffffffffffffffffffffffffffffffffffffffff166121b182610941565b73ffffffffffffffffffffffffffffffffffffffff1614612207576040517f08c379a00000000000000000000000000000000000000000000000000000000081526004016121fe9061436a565b60405180910390fd5b600073ffffffffffffffffffffffffffffffffffffffff168273ffffffffffffffffffffffffffffffffffffffff161415612277576040517f08c379a000000000000000000000000000000000000000000000000000000000815260040161226e9061424a565b60405180910390fd5b612282838383612b53565b61228d600082611ffa565b6001600360008573ffffffffffffffffffffffffffffffffffffffff1673ffffffffffffffffffffffffffffffffffffffff16815260200190815260200160002060008282546122dd9190614690565b925050819055506001600360008473ffffffffffffffffffffffffffffffffffffffff1673ffffffffffffffffffffffffffffffffffffffff168152602001908152602001600020600082825461233491906145af565b92505081905550816002600083815260200190815260200160002060006101000a81548173ffffffffffffffffffffffffffffffffffffffff021916908373ffffffffffffffffffffffffffffffffffffffff160217905550808273ffffffffffffffffffffffffffffffffffffffff168473ffffffffffffffffffffffffffffffffffffffff167fddf252ad1be2c89b69c2b068fc378daa952ba7f163c4a11628f55a4df523b3ef60405160405180910390a4505050565b8173ffffffffffffffffffffffffffffffffffffffff168373ffffffffffffffffffffffffffffffffffffffff16141561245c576040517f08c379a00000000000000000000000000000000000000000000000000000000081526004016124539061426a565b60405180910390fd5b80600560008573ffffffffffffffffffffffffffffffffffffffff1673ffffffffffffffffffffffffffffffffffffffff16815260200190815260200160002060008473ffffffffffffffffffffffffffffffffffffffff1673ffffffffffffffffffffffffffffffffffffffff16815260200190815260200160002060006101000a81548160ff0219169083151502179055508173ffffffffffffffffffffffffffffffffffffffff168373ffffffffffffffffffffffffffffffffffffffff167f17307eab39ab6107e8899845ad3d59bd9653f200f220920489ca2b5937696c318360405161254d9190614031565b60405180910390a3505050565b612565848484612191565b61257184848484612b58565b6125b0576040517f08c379a00000000000000000000000000000000000000000000000000000000081526004016125a7906141ea565b60405180910390fd5b50505050565b606060008214156125fe576040518060400160405280600181526020017f3000000000000000000000000000000000000000000000000000000000000000815250905061275e565b600082905060005b60008214612630578080612619906147ac565b915050600a826126299190614605565b9150612606565b60008167ffffffffffffffff811115612672577f4e487b7100000000000000000000000000000000000000000000000000000000600052604160045260246000fd5b6040519080825280601f01601f1916602001820160405280156126a45781602001600182028036833780820191505090505b5090505b60008514612757576001826126bd9190614690565b9150600a856126cc91906147f5565b60306126d891906145af565b60f81b818381518110612714577f4e487b7100000000000000000000000000000000000000000000000000000000600052603260045260246000fd5b60200101907effffffffffffffffffffffffffffffffffffffffffffffffffffffffffffff1916908160001a905350600a856127509190614605565b94506126a8565b8093505050505b919050565b6060600082519050600081141561278c576040518060200160405280600081525091505061291c565b6000600360028361279d91906145af565b6127a79190614605565b60046127b39190614636565b905060006020826127c491906145af565b67ffffffffffffffff811115612803577f4e487b7100000000000000000000000000000000000000000000000000000000600052604160045260246000fd5b6040519080825280601f01601f1916602001820160405280156128355781602001600182028036833780820191505090505b5090506000604051806060016040528060408152602001614975604091399050600181016020830160005b868110156128d95760038101905062ffffff818a015116603f8160121c168401518060081b905060ff603f83600c1c1686015116810190508060081b905060ff603f8360061c1686015116810190508060081b905060ff603f831686015116810190508060e01b90508084526004840193505050612860565b5060038606600181146128f357600281146129035761290e565b613d3d60f01b600283035261290e565b603d60f81b60018303525b508484525050819450505050505b919050565b6129bd8484848460405160240161293b94939291906140c8565b6040516020818303038152906040527fd5cf17d0000000000000000000000000000000000000000000000000000000007bffffffffffffffffffffffffffffffffffffffffffffffffffffffff19166020820180517bffffffffffffffffffffffffffffffffffffffffffffffffffffffff8381831617835250505050612b2a565b50505050565b612a5b82826040516024016129d992919061417c565b6040516020818303038152906040527f9710a9d0000000000000000000000000000000000000000000000000000000007bffffffffffffffffffffffffffffffffffffffffffffffffffffffff19166020820180517bffffffffffffffffffffffffffffffffffffffffffffffffffffffff8381831617835250505050612b2a565b5050565b600081600001549050919050565b612a87828260405180602001604052806000815250612cef565b5050565b612b25838383604051602401612aa3939291906141ac565b6040516020818303038152906040527f969cdd03000000000000000000000000000000000000000000000000000000007bffffffffffffffffffffffffffffffffffffffffffffffffffffffff19166020820180517bffffffffffffffffffffffffffffffffffffffffffffffffffffffff8381831617835250505050612b2a565b505050565b60008151905060006a636f6e736f6c652e6c6f679050602083016000808483855afa5050505050565b505050565b6000612b798473ffffffffffffffffffffffffffffffffffffffff16612d4a565b15612ce2578373ffffffffffffffffffffffffffffffffffffffff1663150b7a02612ba2611ff2565b8786866040518563ffffffff1660e01b8152600401612bc49493929190613f8c565b602060405180830381600087803b158015612bde57600080fd5b505af1925050508015612c0f57506040513d601f19601f82011682018060405250810190612c0c91906132d4565b60015b612c92573d8060008114612c3f576040519150601f19603f3d011682016040523d82523d6000602084013e612c44565b606091505b50600081511415612c8a576040517f08c379a0000000000000000000000000000000000000000000000000000000008152600401612c81906141ea565b60405180910390fd5b805181602001fd5b63150b7a0260e01b7bffffffffffffffffffffffffffffffffffffffffffffffffffffffff1916817bffffffffffffffffffffffffffffffffffffffffffffffffffffffff191614915050612ce7565b600190505b949350505050565b612cf98383612d5d565b612d066000848484612b58565b612d45576040517f08c379a0000000000000000000000000000000000000000000000000000000008152600401612d3c906141ea565b60405180910390fd5b505050565b600080823b905060008111915050919050565b600073ffffffffffffffffffffffffffffffffffffffff168273ffffffffffffffffffffffffffffffffffffffff161415612dcd576040517f08c379a0000000000000000000000000000000000000000000000000000000008152600401612dc49061432a565b60405180910390fd5b612dd681611f86565b15612e16576040517f08c379a0000000000000000000000000000000000000000000000000000000008152600401612e0d9061422a565b60405180910390fd5b612e2260008383612b53565b6001600360008473ffffffffffffffffffffffffffffffffffffffff1673ffffffffffffffffffffffffffffffffffffffff1681526020019081526020016000206000828254612e7291906145af565b92505081905550816002600083815260200190815260200160002060006101000a81548173ffffffffffffffffffffffffffffffffffffffff021916908373ffffffffffffffffffffffffffffffffffffffff160217905550808273ffffffffffffffffffffffffffffffffffffffff16600073ffffffffffffffffffffffffffffffffffffffff167fddf252ad1be2c89b69c2b068fc378daa952ba7f163c4a11628f55a4df523b3ef60405160405180910390a45050565b6040518060a0016040528060608152602001606081526020016000815260200160008152602001600081525090565b6040518060c001604052806000815260200160608152602001606081526020016000815260200160008152602001600081525090565b828054612f9c9061477a565b90600052602060002090601f016020900481019282612fbe5760008555613005565b82601f10612fd757805160ff1916838001178555613005565b82800160010185558215613005579182015b82811115613004578251825591602001919060010190612fe9565b5b5090506130129190613016565b5090565b5b8082111561302f576000816000905550600101613017565b5090565b6000613046613041846144f2565b6144c1565b90508281526020810184848401111561305e57600080fd5b613069848285614738565b509392505050565b600081359050613080816148f3565b92915050565b6000813590506130958161490a565b92915050565b6000813590506130aa81614921565b92915050565b6000815190506130bf81614921565b92915050565b600082601f8301126130d657600080fd5b81356130e6848260208601613033565b91505092915050565b6000813590506130fe81614938565b92915050565b60006020828403121561311657600080fd5b600061312484828501613071565b91505092915050565b6000806040838503121561314057600080fd5b600061314e85828601613071565b925050602061315f85828601613071565b9150509250929050565b60008060006060848603121561317e57600080fd5b600061318c86828701613071565b935050602061319d86828701613071565b92505060406131ae868287016130ef565b9150509250925092565b600080600080608085870312156131ce57600080fd5b60006131dc87828801613071565b94505060206131ed87828801613071565b93505060406131fe878288016130ef565b925050606085013567ffffffffffffffff81111561321b57600080fd5b613227878288016130c5565b91505092959194509250565b6000806040838503121561324657600080fd5b600061325485828601613071565b925050602061326585828601613086565b9150509250929050565b6000806040838503121561328257600080fd5b600061329085828601613071565b92505060206132a1858286016130ef565b9150509250929050565b6000602082840312156132bd57600080fd5b60006132cb8482850161309b565b91505092915050565b6000602082840312156132e657600080fd5b60006132f4848285016130b0565b91505092915050565b60006020828403121561330f57600080fd5b600061331d848285016130ef565b91505092915050565b60006133328383613d6c565b905092915050565b613343816146c4565b82525050565b600061335482614532565b61335e8185614560565b93508360208202850161337085614522565b8060005b858110156133ac578484038952815161338d8582613326565b945061339883614553565b925060208a01995050600181019050613374565b50829750879550505050505092915050565b6133c7816146d6565b82525050565b60006133d88261453d565b6133e28185614571565b93506133f2818560208601614747565b6133fb816148e2565b840191505092915050565b600061341182614548565b61341b8185614582565b935061342b818560208601614747565b613434816148e2565b840191505092915050565b600061344a82614548565b6134548185614593565b9350613464818560208601614747565b61346d816148e2565b840191505092915050565b600061348382614548565b61348d81856145a4565b935061349d818560208601614747565b80840191505092915050565b60006134b6600b836145a4565b91507f202d2d204e465420233a200000000000000000000000000000000000000000006000830152600b82019050919050565b60006134f6603283614593565b91507f4552433732313a207472616e7366657220746f206e6f6e20455243373231526560008301527f63656976657220696d706c656d656e74657200000000000000000000000000006020830152604082019050919050565b600061355c602883614593565b91507f4572726f723a20626f7373206d757374206861766520485020746f206174746160008301527f636b20626f73732e0000000000000000000000000000000000000000000000006020830152604082019050919050565b60006135c2601c83614593565b91507f4552433732313a20746f6b656e20616c7265616479206d696e746564000000006000830152602082019050919050565b6000613602600e836145a4565b91507f2c20226d61785f76616c7565223a0000000000000000000000000000000000006000830152600e82019050919050565b6000613642602483614593565b91507f4552433732313a207472616e7366657220746f20746865207a65726f2061646460008301527f72657373000000000000000000000000000000000000000000000000000000006020830152604082019050919050565b60006136a8601983614593565b91507f4552433732313a20617070726f766520746f2063616c6c6572000000000000006000830152602082019050919050565b60006136e8602c83614593565b91507f4552433732313a206f70657261746f7220717565727920666f72206e6f6e657860008301527f697374656e7420746f6b656e00000000000000000000000000000000000000006020830152604082019050919050565b600061374e603883614593565b91507f4552433732313a20617070726f76652063616c6c6572206973206e6f74206f7760008301527f6e6572206e6f7220617070726f76656420666f7220616c6c00000000000000006020830152604082019050919050565b60006137b4602a83614593565b91507f4552433732313a2062616c616e636520717565727920666f7220746865207a6560008301527f726f2061646472657373000000000000000000000000000000000000000000006020830152604082019050919050565b600061381a602983614593565b91507f4552433732313a206f776e657220717565727920666f72206e6f6e657869737460008301527f656e7420746f6b656e00000000000000000000000000000000000000000000006020830152604082019050919050565b60006138806062836145a4565b91507f222c20226465736372697074696f6e223a20225468697320697320616e204e4660008301527f542074686174206c6574732070656f706c6520706c617920696e20746865206760208301527f616d65204d657461766572736520536c6179657221222c2022696d616765223a60408301527f20220000000000000000000000000000000000000000000000000000000000006060830152606282019050919050565b6000613932602d83614593565b91507f4572726f723a20636861726163746572206d757374206861766520485020746f60008301527f2061747461636b20626f73732e000000000000000000000000000000000000006020830152604082019050919050565b60006139986004836145a4565b91507f7d205d7d000000000000000000000000000000000000000000000000000000006000830152600482019050919050565b60006139d8602083614593565b91507f4552433732313a206d696e7420746f20746865207a65726f20616464726573736000830152602082019050919050565b6000613a18602c83614593565b91507f4552433732313a20617070726f76656420717565727920666f72206e6f6e657860008301527f697374656e7420746f6b656e00000000000000000000000000000000000000006020830152604082019050919050565b6000613a7e602983614593565b91507f4552433732313a207472616e73666572206f6620746f6b656e2074686174206960008301527f73206e6f74206f776e00000000000000000000000000000000000000000000006020830152604082019050919050565b6000613ae4600a836145a4565b91507f7b226e616d65223a2022000000000000000000000000000000000000000000006000830152600a82019050919050565b6000613b24602183614593565b91507f4552433732313a20617070726f76616c20746f2063757272656e74206f776e6560008301527f72000000000000000000000000000000000000000000000000000000000000006020830152604082019050919050565b6000613b8a601d836145a4565b91507f646174613a6170706c69636174696f6e2f6a736f6e3b6261736536342c0000006000830152601d82019050919050565b6000613bca603183614593565b91507f4552433732313a207472616e736665722063616c6c6572206973206e6f74206f60008301527f776e6572206e6f7220617070726f7665640000000000000000000000000000006020830152604082019050919050565b6000613c30603d836145a4565b91507f222c202261747472696275746573223a205b207b202274726169745f7479706560008301527f223a20224865616c746820506f696e7473222c202276616c7565223a200000006020830152603d82019050919050565b6000613c96602d836145a4565b91507f7d2c207b202274726169745f74797065223a202241747461636b2044616d616760008301527f65222c202276616c7565223a20000000000000000000000000000000000000006020830152602d82019050919050565b600060a0830160008301518482036000860152613d0c8282613406565b91505060208301518482036020860152613d268282613406565b9150506040830151613d3b6040860182613e8c565b506060830151613d4e6060860182613e8c565b506080830151613d616080860182613e8c565b508091505092915050565b600060c083016000830151613d846000860182613e8c565b5060208301518482036020860152613d9c8282613406565b91505060408301518482036040860152613db68282613406565b9150506060830151613dcb6060860182613e8c565b506080830151613dde6080860182613e8c565b5060a0830151613df160a0860182613e8c565b508091505092915050565b600060c083016000830151613e146000860182613e8c565b5060208301518482036020860152613e2c8282613406565b91505060408301518482036040860152613e468282613406565b9150506060830151613e5b6060860182613e8c565b506080830151613e6e6080860182613e8c565b5060a0830151613e8160a0860182613e8c565b508091505092915050565b613e958161472e565b82525050565b613ea48161472e565b82525050565b6000613eb582613ad7565b9150613ec18289613478565b9150613ecc826134a9565b9150613ed88288613478565b9150613ee382613873565b9150613eef8287613478565b9150613efa82613c23565b9150613f068286613478565b9150613f11826135f5565b9150613f1d8285613478565b9150613f2882613c89565b9150613f348284613478565b9150613f3f8261398b565b9150819050979650505050505050565b6000613f5a82613b7d565b9150613f668284613478565b915081905092915050565b6000602082019050613f86600083018461333a565b92915050565b6000608082019050613fa1600083018761333a565b613fae602083018661333a565b613fbb6040830185613e9b565b8181036060830152613fcd81846133cd565b905095945050505050565b6000606082019050613fed600083018661333a565b613ffa6020830185613e9b565b6140076040830184613e9b565b949350505050565b600060208201905081810360008301526140298184613349565b905092915050565b600060208201905061404660008301846133be565b92915050565b60006020820190508181036000830152614066818461343f565b905092915050565b60006080820190508181036000830152614088818761343f565b9050818103602083015261409c818661343f565b90506140ab6040830185613e9b565b81810360608301526140bd818461343f565b905095945050505050565b600060808201905081810360008301526140e2818761343f565b905081810360208301526140f6818661343f565b90506141056040830185613e9b565b6141126060830184613e9b565b95945050505050565b600060a0820190508181036000830152614135818861343f565b90508181036020830152614149818761343f565b90506141586040830186613e9b565b6141656060830185613e9b565b6141726080830184613e9b565b9695505050505050565b60006040820190508181036000830152614196818561343f565b90506141a56020830184613e9b565b9392505050565b600060608201905081810360008301526141c6818661343f565b90506141d56020830185613e9b565b6141e26040830184613e9b565b949350505050565b60006020820190508181036000830152614203816134e9565b9050919050565b600060208201905081810360008301526142238161354f565b9050919050565b60006020820190508181036000830152614243816135b5565b9050919050565b6000602082019050818103600083015261426381613635565b9050919050565b600060208201905081810360008301526142838161369b565b9050919050565b600060208201905081810360008301526142a3816136db565b9050919050565b600060208201905081810360008301526142c381613741565b9050919050565b600060208201905081810360008301526142e3816137a7565b9050919050565b600060208201905081810360008301526143038161380d565b9050919050565b6000602082019050818103600083015261432381613925565b9050919050565b60006020820190508181036000830152614343816139cb565b9050919050565b6000602082019050818103600083015261436381613a0b565b9050919050565b6000602082019050818103600083015261438381613a71565b9050919050565b600060208201905081810360008301526143a381613b17565b9050919050565b600060208201905081810360008301526143c381613bbd565b9050919050565b600060208201905081810360008301526143e48184613cef565b905092915050565b600060208201905081810360008301526144068184613dfc565b905092915050565b60006020820190506144236000830184613e9b565b92915050565b600060c08201905061443e6000830189613e9b565b8181036020830152614450818861343f565b90508181036040830152614464818761343f565b90506144736060830186613e9b565b6144806080830185613e9b565b61448d60a0830184613e9b565b979650505050505050565b60006040820190506144ad6000830185613e9b565b6144ba6020830184613e9b565b9392505050565b6000604051905081810181811067ffffffffffffffff821117156144e8576144e76148b3565b5b8060405250919050565b600067ffffffffffffffff82111561450d5761450c6148b3565b5b601f19601f8301169050602081019050919050565b6000819050602082019050919050565b600081519050919050565b600081519050919050565b600081519050919050565b6000602082019050919050565b600082825260208201905092915050565b600082825260208201905092915050565b600082825260208201905092915050565b600082825260208201905092915050565b600081905092915050565b60006145ba8261472e565b91506145c58361472e565b9250827fffffffffffffffffffffffffffffffffffffffffffffffffffffffffffffffff038211156145fa576145f9614826565b5b828201905092915050565b60006146108261472e565b915061461b8361472e565b92508261462b5761462a614855565b5b828204905092915050565b60006146418261472e565b915061464c8361472e565b9250817fffffffffffffffffffffffffffffffffffffffffffffffffffffffffffffffff048311821515161561468557614684614826565b5b828202905092915050565b600061469b8261472e565b91506146a68361472e565b9250828210156146b9576146b8614826565b5b828203905092915050565b60006146cf8261470e565b9050919050565b60008115159050919050565b60007fffffffff0000000000000000000000000000000000000000000000000000000082169050919050565b600073ffffffffffffffffffffffffffffffffffffffff82169050919050565b6000819050919050565b82818337600083830152505050565b60005b8381101561476557808201518184015260208101905061474a565b83811115614774576000848401525b50505050565b6000600282049050600182168061479257607f821691505b602082108114156147a6576147a5614884565b5b50919050565b60006147b78261472e565b91507fffffffffffffffffffffffffffffffffffffffffffffffffffffffffffffffff8214156147ea576147e9614826565b5b600182019050919050565b60006148008261472e565b915061480b8361472e565b92508261481b5761481a614855565b5b828206905092915050565b7f4e487b7100000000000000000000000000000000000000000000000000000000600052601160045260246000fd5b7f4e487b7100000000000000000000000000000000000000000000000000000000600052601260045260246000fd5b7f4e487b7100000000000000000000000000000000000000000000000000000000600052602260045260246000fd5b7f4e487b7100000000000000000000000000000000000000000000000000000000600052604160045260246000fd5b6000601f19601f8301169050919050565b6148fc816146c4565b811461490757600080fd5b50565b614913816146d6565b811461491e57600080fd5b50565b61492a816146e2565b811461493557600080fd5b50565b6149418161472e565b811461494c57600080fd5b5056fe506c617965722061747461636b656420626f73732e204e657720626f73732068703a2025734142434445464748494a4b4c4d4e4f505152535455565758595a6162636465666768696a6b6c6d6e6f707172737475767778797a303132333435363738392b2f426f73732061747461636b656420706c617965722e204e657720706c617965722068703a2025730a4d696e746564204e465420772f20746f6b656e496420257320616e6420636861726163746572496e6465782025730a506c6179657220772f206368617261637465722025732061626f757420746f2061747461636b2e2048617320257320485020616e64202573204144a26469706673582212207d6d308a6cfd6b47c03de557b9ec4a27606343e0584bd99f4a861871f84e4f7164736f6c63430008000033446f6e6520696e697469616c697a696e6720257320772f2048502025732c20696d67202573446f6e6520696e697469616c697a696e6720626f737320257320772f2048502025732c20696d67202573",
  "linkReferences": {},
  "deployedLinkReferences": {}
}